:100000000C9434000C9446000C944D020C94460061
:100010000C9446000C9446000C9446000C94460048
:100020000C9446000C9446000C9446000C94460038
:100030000C9446000C9446000C9446000C94460028
:100040000C9446000C9446000C9446000C94460018
:100050000C9446000C9446000C9446000C94460008
:100060000C9446000C94460011241FBECFEFD8E03C
:10007000DEBFCDBF11E0A0E0B1E001C01D92A9300C
:10008000B107E1F70E9498000C94B6020C940000AE
:10009000E7E2F0E0808180618083808180628083FC
:1000A000808188608083E8E2F0E080818F7E8083B9
:1000B00080818F7D80838081877F80830895E8E2BF
:1000C000F0E090819F7E90839081977F908320E0E5
:1000D00030E0482F50E0CA01022E02C09595879566
:1000E0000A94E2F780FF04C080818062808303C0AD
:1000F00080818F7D80838081886080838081877FFD
:1001000080832F5F3F4F2830310529F7E8E2F0E088
:1001100080818061808380818F7E808308951F939A
:10012000192F0E945F00812F0E945F001F91089588
:10013000CF93DF93EAE2F0E0808180628083C0E5C4
:10014000D3EC8BE290E065E00E948F01CE01019735
:10015000F1F78BE290E065E00E949B01CE010197F0
:10016000F1F7EFCFE4E2F0E080818260808380816C
:1001700084608083808188608083808180618083C7
:100180000895E5E2F0E080818260808380818B7F4A
:1001900080830895E5E2F0E080818860808380813B
:1001A0008F7E808308950E94C1000E94CA00089536
:1001B000E5E2F0E080818D7F8083808184608083B0
:1001C00008950E94D8000E94CA000895E5E2F0E078
:1001D0008081877F808380818061808308950E94F1
:1001E000C1000E94E60008950E94D8000E94E60027
:1001F0000895E5E2F0E080818D7F808380818B7FB0
:1002000080830895E5E2F0E08081877F80838081AC
:100210008F7E808308950E94F9000E940201089554
:10022000E5E2F0E080818260808380818460808369
:100230000895E5E2F0E080818860808380818061BC
:10024000808308950E9410010E9419010895E0E83A
:10025000F0E080818C708083E1E8F0E08081807242
:100260008083E2E8F0E080818F738083EFE6F0E046
:1002700080818A7D80838081826080830895E1E827
:10028000F0E08081887F80830895E1E8F0E080815C
:10029000816080838081897F80830895E1E8F0E038
:1002A00080818260808380818A7F8083089590939B
:1002B0008900809388000895109285001092840030
:1002C0000895AAE2B0E08C91877F8C93E9E2F0E098
:1002D000808188608083E9E6F0E0808184608083AB
:1002E0008081877F8083EDE3F0E08081826080837E
:1002F0008C9187618C93EBE2F0E08081887E808333
:100300008C9181608C9380818E7F80830E945C01C0
:1003100084ED90E30E9457010E944E010895FC0174
:10032000208181E090E002C0880F991F6A95E2F772
:10033000282B20830895FC01208181E090E002C0F9
:10034000880F991F6A95E2F780958223808308952C
:1003500021E030E002C0220F331F6A95E2F78223CA
:10036000089540E02091000122952695269523705E
:1003700030E090E02817390709F441E0842F089510
:1003800090910001892F807C805C9F73892B8093E2
:10039000000108958091000190E083709070823098
:1003A000910549F08330910541F0019711F482E005
:1003B000089584E0089581E0089580E00895809193
:1003C000000190E08370907081309105D1F082300F
:1003D00091051CF4892B39F0089582309105F9F0CC
:1003E0000397C1F52AC08091840040918500342F85
:1003F00020E090E0282B392B30930201209301015B
:1004000008958091840040918500342F20E090E091
:10041000282B392B309304012093030108958091F8
:10042000840040918500342F20E090E0282B392B68
:100430003093060120930501089580918400409136
:100440008500342F20E090E0282B392B30930801D1
:1004500020930701089590910001892F83708F5F89
:100460008C7F9C7F892B8093000108950F931F93AD
:100470000BE210E0F801808190E064E00E948F01BF
:1004800084EC99E00197F1F7F801808190E064E055
:100490000E949B011F910F9108951F920F920FB61A
:1004A0000F9211242F933F934F935F936F937F93FA
:1004B0008F939F93AF93BF93EF93FF938BB190E094
:1004C00062E00E948F01F89489B163E00E94A80164
:1004D000882329F00E945C010E94450114C00E94FB
:1004E0003F01209184008091850090E08295929553
:1004F000907F9827807F982730E0822B932B9093D2
:100500000201809301018BB190E062E00E949B01A7
:100510007894FF91EF91BF91AF919F918F917F91CF
:100520006F915F914F913F912F910F900FBE0F9060
:100530001F9018952091010130910201822F932F75
:1005400008952091030130910401822F932F089583
:100550002091050130910601822F932F089520915B
:10056000070130910801822F932F0895F894FFCF4F
:00000001FF
