:100000000C9434000C94DB020C94AC020C9446006B
:100010000C9446000C9446000C9446000C94460048
:100020000C9446000C9446000C9446000C94460038
:100030000C9446000C9446000C9446000C94460028
:100040000C9446000C9446000C9446000C94460018
:100050000C9446000C9446000C9446000C94460008
:100060000C9446000C94460011241FBECFEFD8E03C
:10007000DEBFCDBF11E0A0E0B1E001C01D92A9300C
:10008000B107E1F70E940A010C9426030C940000CA
:10009000E7E2F0E0808180618083808180628083FC
:1000A000808188608083E8E2F0E080818F7E8083B9
:1000B00080818F7D80838081877F80830895E8E2BF
:1000C000F0E090819F7E90839081977F908320E0E5
:1000D00030E0482F50E0CA01022E02C09595879566
:1000E0000A94E2F780FF04C080818062808303C0AD
:1000F00080818F7D80838081886080838081877FFD
:1001000080832F5F3F4F2830310529F7E8E2F0E088
:1001100080818061808380818F7E808308951F939A
:10012000192F0E945F00812F0E945F001F91089588
:100130000F931F93EBE2F0E080818062808300E503
:1001400013ECC8010197F1F780818F7D8083C8018E
:100150000197F1F780818062808328EA31E6C90146
:100160000197F1F780818F7D8083C9010197F1F7B5
:1001700080818062808324ED30E3C9010197F1F72B
:1001800080818F7D8083C9010197F1F78081806232
:1001900080832AE638E1C9010197F1F780818F7DDC
:1001A0008083C9010197F1F781E10E945F00C801D6
:1001B0000197F1F783E30E945F00C8010197F1F70F
:1001C00087E70E945F00C8010197F1F78FEF0E9457
:1001D0005F00C8010197F1F78EEE0E945F00C80131
:1001E0000197F1F78CEC0E945F00C8010197F1F7CD
:1001F00088E80E945F00C8010197F1F780E00E9443
:100200005F00C8010197F1F780E00E945F001F9135
:100210000F910895CF93DF930E9495010E94CF0123
:10022000EAE2F0E08081806280837894C8EAD1E6D7
:10023000CE010197F1F70E9482020E948C02F8CF52
:10024000E4E2F0E08081826080838081846080834A
:100250008081886080838081806180830895E5E269
:10026000F0E080818260808380818B7F808308952D
:10027000E5E2F0E080818860808380818F7E8083EA
:1002800008950E942F010E9438010895E5E2F0E0F0
:1002900080818D7F808380818460808308950E9427
:1002A00046010E9438010895E5E2F0E08081877FF1
:1002B000808380818061808308950E942F010E9445
:1002C000540108950E9446010E9454010895E5E2F8
:1002D000F0E080818D7F808380818B7F8083089593
:1002E000E5E2F0E08081877F808380818F7E80835C
:1002F00008950E9467010E9470010895E5E2F0E010
:100300008081826080838081846080830895E5E2BB
:10031000F0E080818860808380818061808308959F
:100320000E947E010E9487010895E0E8F0E080814C
:100330008C708083E1E8F0E0808180728083E2E865
:10034000F0E080818F738083EFE6F0E080818A7D2A
:1003500080838081826080830895E1E8F0E080817D
:10036000887F80830895E1E8F0E080818160808368
:100370008081897F80830895E1E8F0E08081826058
:10038000808380818A7F8083089590938900809301
:100390008800089510928500109284000895AAE2C2
:1003A000B0E08C91837F8C93E9E2F0E080818C60F7
:1003B0008083E9E6F0E08081846080838081877FAC
:1003C000808380818D6F8083EDE3F0E080818160A8
:1003D00080838081826080838C9183658C93EBE243
:1003E000F0E080818F7E808380818F7B808380811D
:1003F0008D7F808380818E7F8083109200010E9498
:10040000CA0184ED90E30E94C5010E94BC010895D9
:1004100040E020910001229526952695237030E03A
:1004200090E02817390709F441E0842F089590914E
:100430000001892F807C805C9F73892B8093000151
:1004400008958091000190E0837090708230910552
:1004500049F08330910541F0019711F486E0089549
:1004600084E0089581E0089580E00895809100017E
:1004700090E08370907081309105D1F082309105C9
:100480001CF4892B39F0089582309105F9F0039717
:10049000C1F52AC08091840040918500342F20E06E
:1004A00090E0282B392B309302012093010108950D
:1004B0008091840040918500342F20E090E0282B2B
:1004C000392B309304012093030108958091840017
:1004D00040918500342F20E090E0282B392B309379
:1004E00006012093050108958091840040918500C4
:1004F000342F20E090E0282B392B309308012093F3
:100500000701089590910001892F8F5F83709C7F70
:10051000892B809300010895FF920F931F930BE2A4
:1005200010E0F801F0800E94210221E030E002C0DA
:10053000220F331F8A95E2F7822F8F29F8018083DB
:1005400084EC99E00197F1F780812095282320839E
:100550001F910F91FF9008951F920F920FB60F9267
:1005600011242F933F934F935F936F937F938F93B8
:100570009F93AF93BF93EF93FF93F8944B9B05C06A
:100580000E94CA010E94B30104C00E94AD010E94F2
:1005900036027894FF91EF91BF91AF919F918F9127
:1005A0007F916F915F914F913F912F910F900FBE6F
:1005B0000F901F9018951F920F920FB60F92112453
:1005C0002F933F934F935F936F937F938F939F935B
:1005D000AF93BF93EF93FF93F8944A9B05C00E949B
:1005E000CA010E94B30104C00E94AD010E943602FC
:1005F0007894FF91EF91BF91AF919F918F917F91EF
:100600006F915F914F913F912F910F900FBE0F907F
:100610001F9018952091010130910201822F932F94
:1006200008952091030130910401822F932F0895A2
:100630002091050130910601822F932F089520917A
:10064000070130910801822F932F0895F894FFCF6E
:00000001FF
