:100000000C9434000C9451000C9451000C94510049
:100010000C9451000C94EA000C9451000C94510083
:100020000C9451000C9451000C9451000C9451000C
:100030000C9451000C9451000C9451000C945100FC
:100040000C9451000C9451000C9451000C945100EC
:100050000C9451000C9451000C9451000C945100DC
:100060000C9451000C94510011241FBECFEFD8E026
:10007000DEBFCDBF11E0A0E0B1E0E0EFF4E002C0F0
:1000800005900D92A230B107D9F711E0A2E0B1E0DE
:1000900001C01D92AC30B107E1F70E9451010C94F0
:1000A00076020C940000AAE2B0E08C918F7E8C93D3
:1000B0008C918F7D8C938C918F7B8C938C918F778F
:1000C0008C93E9E2F0E080818061808380818061AF
:1000D0008083808180618083808180618083E8E685
:1000E000F0E0808184608083EDE6F0E080818061D3
:1000F000808380818062808380818064808380812E
:10010000806880838C918F608C93EBE2F0E080813B
:100110008E7F808380818D7F808380818B7F8083B1
:100120008081877F8083089580918400409185003D
:10013000342F20E090E0282B392B822F932F089525
:1001400084E080930501EBE2F0E0808181608083B0
:1001500083E08A95F1F780818E7F8083089585E022
:1001600080930501EBE2F0E080818260808383E090
:100170008A95F1F780818D7F8083089586E0809352
:100180000501EBE2F0E080818460808383E08A9562
:10019000F1F780818B7F808308951F93182F0E9431
:1001A0003C02EAE2F0E0208181E090E002C0880FAA
:1001B000991F1A95E2F7282B208320818095282308
:1001C0002083A0E5B3EC1197F1F72081822380838F
:1001D0001F9108951F920F920FB60F9211242F9323
:1001E0003F934F935F936F937F938F939F93AF93BF
:1001F000BF93EF93FF93F89489B12091050190E0AC
:1002000002C0959587952A95E2F780FF05C00E9468
:1002100071020E945F0233C00E9459028091050161
:10022000853091F08630F1F0843049F5809184007A
:1002300040918500342F20E090E0282B392B30931B
:100240000701209306011BC0809184004091850026
:10025000342F20E090E0282B392B30930901209394
:1002600008010DC08091840040918500342F20E06A
:1002700090E0282B392B30930B0120930A017894BE
:10028000FF91EF91BF91AF919F918F917F916F916E
:100290005F914F913F912F910F900FBE0F901F9044
:1002A00018950F931F93CF93DF930E9441020E94F2
:1002B0005300E7E2F0E0808184608083EAE2F0E0CE
:1002C0008081877F8083E8E2F0E0808184608083A2
:1002D00028E833E149E150E0CA010197F1F72150E4
:1002E0003040D1F7E8E2F0E080818B7F8083789422
:1002F00009E210E0C8E9DAE3F801808183FF3FC03A
:100300000E94A000CE010197F1F780910601909123
:10031000070120910601309107018C5D954060F541
:10032000232B51F10E943C020E94AF00CE010197A5
:10033000F1F78091080190910901892B41F40E9405
:10034000CD000E94AF00CE010197F1F7D5CF80918B
:100350000801909109018C5D954018F40E94FF01FD
:10036000CBCF80910801909109018D5D954008F4F3
:10037000C3CF0E94F101C0CF0E94E301BDCF0E9414
:100380003C02BACFE4E2F0E0808182608083808129
:1003900084608083808188608083808180618083A5
:1003A0000895E5E2F0E080818260808380818B7F28
:1003B00080830895E5E2F0E0808188608083808119
:1003C0008F7E808308950E94D1010E94DA010895F2
:1003D000E5E2F0E080818D7F80838081846080838E
:1003E00008950E94E8010E94DA010895E5E2F0E034
:1003F0008081877F808380818061808308950E94CF
:10040000D1010E94F60108950E94E8010E94F601C0
:100410000895E5E2F0E080818D7F808380818B7F8D
:10042000808308950E94DA010E9409020895E5E29E
:10043000F0E08081877F808380818F7E8083089534
:100440000E94D1010E94170208950E9409020E9491
:1004500017020895E5E2F0E0808182608083808168
:10046000846080830895E5E2F0E080818860808385
:1004700080818061808308950E942A020E94330255
:100480000895E0E8F0E080818C708083E1E8F0E09E
:10049000808180728083E2E8F0E080818F738083C6
:1004A000EFE6F0E080818A7D8083808182608083B6
:1004B0000895E1E8F0E08081887F80830895E1E895
:1004C000F0E08081816080838081897F80830895CE
:1004D000E1E8F0E080818260808380818A7F808390
:1004E000089510928500109284000895F894FFCF2B
:0204F000FF000B
:00000001FF
